:020000040000FA
:060000000A128A11F82F1C
:100F1A00F201F30100000130F2070318F30A00306E
:100F2A00F3077308803AFF0083307F02031D9F2F67
:100F3A00E8307202031CA22FA32F8F2F08007430EF
:100F4A00831603138F000130831603178800890163
:100F5A00831603139F010130831203139F00850137
:100F6A00FF30831603138500831203138701831648
:100F7A000313870183120313860183160313860161
:100F8A008801831203138801E830F0000330F1006E
:100F9A000A128A118D270A128A1143308312031307
:100FAA009F00EF2F1E088600831603131E08831264
:100FBA00031387001E08F400F5017408F800750889
:100FCA00F900831603131E08F400F5017408F600ED
:100FDA007508F70083129F18F32FF42FD72FD22FFB
:100FEA000A128A110028F601F701F801F9018301B2
:060FFA000A128A11A42F67
:04400E00D42CFF3F70
:00000001FF
