:100F82000A128A11CD2FE130A100E130A000A00B9E
:100F9200C82FA10BC62F0800031383128501031368
:100FA2008316FF3085000313831287010313831610
:100FB2008701031383128601031383168601031725
:100FC2008316081403138312C1309F000313831680
:100FD20080309F00C427031383129F149F18EF2FA2
:100FE200031383121E08031383128700031383164D
:0E0FF2001E08031383128600C427C4270000C4
:04400E00C400FF3FAC
:00000001FF
